:100000000C947A000C948C000C948C000C948C0052
:100010000C948C000C948C000C948C000C948C0030
:100020000C948C000C948C000C948C000C948C0020
:100030000C948C000C948C000C948C000C948C0010
:100040000C948C000C948C000C948C000C948C0000
:100050000C948C000C948C000C948C000C948C00F0
:100060000C948C000C948C000C948C000C948C00E0
:100070000C948C000C948C000C948C000C948C00D0
:100080000C948C000C948C000C948C000C948C00C0
:100090000C948C000C948C000C948C000C948C00B0
:1000A0000C948C000C948C000C948C000C948C00A0
:1000B0000C948C000C948C000C948C000C948C0090
:1000C0000C948C000C9491000C948C000C948C007B
:1000D0000C948C000C948C000C948C000C948C0070
:1000E0000C948C000C948C000C948C000C948C0060
:1000F0000C948C0011241FBECFEFCDBFDFE7DEBF15
:1001000020E4A0E0B0E401C01D92A230B207E1F704
:100110000E9400010C945F020C9400000E94F20106
:1001200008951F920F920FB60F9211240BB60F92E3
:100130002F933F934F935F936F937F938F939F93EF
:10014000AF93BF93EF93FF93809100409091014054
:100150008038910520F489B1887F816089B98091C8
:100160000040909101408038910599F489B1887FD1
:10017000816089B989B18770886789B985B38062E0
:1001800085BB80B38E7F80BB85E08A95F1F70E94A6
:10019000300280910040909101408115914089F496
:1001A0000E94360285B38F7D85BB80B3816080BBA2
:1001B000109200401092014089B18770886789B918
:1001C00009C08091004090910140019680930040C9
:1001D0009093014080E180934B0AFF91EF91BF9192
:1001E000AF919F918F917F916F915F914F913F91CF
:1001F0002F910F900BBE0F900FBE0F901F90189570
:100200008FEF8093400488B90E948E00FFCFE0E01A
:10021000F6E087E081838AE0808786E0818781EA53
:10022000808380E008951092A90080E008954DE059
:1002300068ED80E890E00E943C0244E268ED88E6C8
:1002400090E00E943C0280E0089541E068ED80E18A
:1002500091E00E943C02789480E0089585E08093CC
:10026000B200E0EAF6E080E892E88283938381ECD2
:10027000808380E0089580E008C0E82FF0E0E05F30
:10028000FB4F9081986090838F5F8830B0F380E05F
:1002900008C0E82FF0E0E05DFB4F9081986090830C
:1002A0008F5F8830B0F380E008C0E82FF0E0E05BBB
:1002B000FB4F9081986090838F5F8830B0F380E02F
:1002C00008C0E82FF0E0E059FB4F908198609083E0
:1002D0008F5F8830B0F380E008C0E82FF0E0E0578F
:1002E000FB4F9081986090838F5F8830B0F380E0FF
:1002F00008C0E82FF0E0E055FB4F908198609083B4
:100300008F5F8830B0F30895E3E7F4E08081887F61
:10031000846080838081877F8083E1E7F4E080814F
:10032000887F846080838081877F8083E2E7F4E038
:100330008081887F846080838081877F8083E7E7F6
:10034000F4E08081887F846080838081877F8083E0
:10035000E5E7F4E08081887F846080838081877F07
:100360008083E3E9F4E08081887F846080838081FA
:10037000877F8083E1E9F4E08081887F84608083E7
:100380008081877F8083E2E9F4E08081887F8460D8
:1003900080838081877F80830E94170208950E9456
:1003A0000F020895E6E7F4E08081887F846080830F
:1003B0008081877F80830E942E0108950E9407011B
:1003C000089581B38E7F81BB80B3816080BBE0EEF6
:1003D000F5E08681846086830E94430208950E942E
:1003E000510208950E943B0185B38F7D85BB84B384
:1003F000806284BB0E9484010E9417010E94CF0189
:100400000E9441020E9425010E94D2010E94DE0149
:100410000E94E1010E94EF010E94130108958AE405
:100420008093100281E08093540280E00895E0E020
:10043000F7E081E0808397E19283848B95E0908B55
:1004400029EE228B20E1238B848F908F128E94E0F3
:10045000938F84A387E080A312A213A280E0089563
:10046000E0E0F7E08081816080830895E0E0F7E0DC
:1004700080818E7F808308951BBEFC0164BF408312
:10048000089580E00895E0E0FAE088E790E080A732
:1004900091A789E1818381E0828381E8808380E084
:1004A0000895E0E4FAE088E790E080A791A781E171
:1004B000818380E1828781E0808380E00895F894E1
:0204C000FFCF6C
:00000001FF
