:100000000C947A000C948C000C948C000C948C0052
:100010000C948C000C948C000C948C000C948C0030
:100020000C948C000C948C000C948C000C948C0020
:100030000C948C000C948C000C948C000C948C0010
:100040000C948C000C948C000C948C000C948C0000
:100050000C948C000C948C000C948C000C948C00F0
:100060000C948C000C948C000C948C000C948C00E0
:100070000C948C000C948C000C948C000C948C00D0
:100080000C948C000C948C000C948C000C948C00C0
:100090000C948C000C948C000C948C000C948C00B0
:1000A0000C948C000C948C000C948C000C948C00A0
:1000B0000C948C000C948C000C948C000C948C0090
:1000C0000C948C000C9491000C948C000C948C007B
:1000D0000C948C000C948C000C948C000C948C0070
:1000E0000C948C000C948C000C948C000C948C0060
:1000F0000C948C0011241FBECFEFCDBFDFE7DEBF15
:1001000020E4A0E0B0E401C01D92A230B207E1F704
:100110000E94FD000C944C020C9400000E94E3012C
:1001200008951F920F920FB60F9211240BB60F92E3
:100130002F933F934F935F936F937F938F939F93EF
:10014000AF93BF93EF93FF93809100409091014054
:100150008038910520F489B1887F816089B98091C8
:100160000040909101408038910581F40E941D0269
:1001700089B1887F816089B989B18770886789B9B9
:1001800081B3826081BB80B38E7F80BB8091004051
:10019000909101408115914089F40E94230281B31E
:1001A0008D7F81BB80B3816080BB10920040109234
:1001B000014089B18770886789B909C08091004082
:1001C000909101400196809300409093014080E11E
:1001D00080934B0AFF91EF91BF91AF919F918F91C7
:1001E0007F916F915F914F913F912F910F900BBE37
:1001F0000F900FBE0F901F9018958FEF80934004C3
:1002000088B90E948E00FFCFE0E0F6E087E08183AE
:100210008AE0808786E0818781EA808380E0089594
:100220001092A90080E008954DE068ED80E890E02C
:100230000E94290244E268ED88E690E00E942902CB
:1002400080E0089541E068ED80E191E00E9429029C
:10025000789480E00895E0EAF6E080EC9FEF8283F6
:10026000938381EC808380E0089580E008C0E82FCC
:10027000F0E0E05FFB4F9081986090838F5F883063
:10028000B0F380E008C0E82FF0E0E05DFB4F908124
:10029000986090838F5F8830B0F380E008C0E82FCB
:1002A000F0E0E05BFB4F9081986090838F5F883037
:1002B000B0F380E008C0E82FF0E0E059FB4F9081F8
:1002C000986090838F5F8830B0F380E008C0E82F9B
:1002D000F0E0E057FB4F9081986090838F5F88300B
:1002E000B0F380E008C0E82FF0E0E055FB4F9081CC
:1002F000986090838F5F8830B0F30895E3E7F4E06F
:100300008081887F846080838081877F8083E1E72C
:10031000F4E08081887F846080838081877F808310
:10032000E2E7F4E08081887F846080838081877F3A
:100330008083E7E7F4E08081887F84608083808128
:10034000877F8083E5E7F4E08081887F8460808315
:100350008081877F8083E3E9F4E08081887F846007
:1003600080838081877F8083E2E9F4E08081887FD9
:10037000846080838081877F80830E940802089543
:100380000E9400020895E6E7F4E08081887F84609F
:1003900080838081877F80830E942B0108950E9443
:1003A0000401089581B38E7F81BB80B3816080BBDF
:1003B000E0EEF5E08681846086830E943002089535
:1003C0000E943E0208950E94350181B38D7F81BB5A
:1003D00080B3826080BB0E947E010E9414010E9453
:1003E000C0010E942E020E9422010E94C3010E94AD
:1003F000CF010E94D2010E94E0010E9410010895E5
:100400008AE48093100281E08093540280E0089592
:10041000E0E0F7E081E0808397E19283848B95E0D0
:10042000908B99EE928B90E1938B848F94E0938FD5
:1004300084A383E080A380E00895E0E0F7E080817A
:10044000816080830895E0E0F7E080818E7F808383
:1004500008951BBEFC0164BF4083089580E00895A9
:10046000E0E0FAE088E790E080A791A789E1818346
:1004700081E0828381E8808380E00895E0E4FAE00F
:1004800088E790E080A791A781E1818380E182875E
:0C04900081E0808380E00895F894FFCFA5
:00000001FF
